{
  "contractName": "CourseMarketPlace",
  "abi": [
    {
      "inputs": [],
      "stateMutability": "nonpayable",
      "type": "constructor"
    },
    {
      "inputs": [],
      "name": "CourseHasOwner",
      "type": "error"
    },
    {
      "inputs": [],
      "name": "OnlyOwner",
      "type": "error"
    },
    {
      "inputs": [
        {
          "internalType": "bytes16",
          "name": "courseId",
          "type": "bytes16"
        },
        {
          "internalType": "bytes32",
          "name": "proof",
          "type": "bytes32"
        }
      ],
      "name": "purchaseCourse",
      "outputs": [],
      "stateMutability": "payable",
      "type": "function",
      "payable": true
    },
    {
      "inputs": [],
      "name": "getCourseCount",
      "outputs": [
        {
          "internalType": "uint256",
          "name": "",
          "type": "uint256"
        }
      ],
      "stateMutability": "view",
      "type": "function",
      "constant": true
    },
    {
      "inputs": [
        {
          "internalType": "uint256",
          "name": "index",
          "type": "uint256"
        }
      ],
      "name": "getCourseHashAtIndex",
      "outputs": [
        {
          "internalType": "bytes32",
          "name": "",
          "type": "bytes32"
        }
      ],
      "stateMutability": "view",
      "type": "function",
      "constant": true
    },
    {
      "inputs": [
        {
          "internalType": "bytes32",
          "name": "courseHash",
          "type": "bytes32"
        }
      ],
      "name": "getCourseByHash",
      "outputs": [
        {
          "components": [
            {
              "internalType": "uint256",
              "name": "id",
              "type": "uint256"
            },
            {
              "internalType": "uint256",
              "name": "price",
              "type": "uint256"
            },
            {
              "internalType": "bytes32",
              "name": "proof",
              "type": "bytes32"
            },
            {
              "internalType": "address",
              "name": "owner",
              "type": "address"
            },
            {
              "internalType": "enum CourseMarketPlace.State",
              "name": "state",
              "type": "uint8"
            }
          ],
          "internalType": "struct CourseMarketPlace.Course",
          "name": "",
          "type": "tuple"
        }
      ],
      "stateMutability": "view",
      "type": "function",
      "constant": true
    },
    {
      "inputs": [],
      "name": "getContractOwner",
      "outputs": [
        {
          "internalType": "address",
          "name": "",
          "type": "address"
        }
      ],
      "stateMutability": "view",
      "type": "function",
      "constant": true
    },
    {
      "inputs": [
        {
          "internalType": "address",
          "name": "newOwner",
          "type": "address"
        }
      ],
      "name": "transferOwnerShip",
      "outputs": [],
      "stateMutability": "nonpayable",
      "type": "function"
    }
  ],
  "bytecode": "0x608060405234801561001057600080fd5b506100203361002560201b60201c565b610069565b80600360006101000a81548173ffffffffffffffffffffffffffffffffffffffff021916908373ffffffffffffffffffffffffffffffffffffffff16021790555050565b610b3d806100786000396000f3fe6080604052600436106100555760003560e01c8063442890d51461005a57806362e4e6ac146100855780636d11290b146100c25780638863dd1a146100ff57806396cfda0614610128578063d76821cb14610153575b600080fd5b34801561006657600080fd5b5061006f61016f565b60405161007c91906108b2565b60405180910390f35b34801561009157600080fd5b506100ac60048036038101906100a79190610735565b610199565b6040516100b991906108e8565b60405180910390f35b3480156100ce57600080fd5b506100e960048036038101906100e4919061075e565b6102c0565b6040516100f691906108cd565b60405180910390f35b34801561010b57600080fd5b50610126600480360381019061012191906106d0565b6102dd565b005b34801561013457600080fd5b5061013d610355565b60405161014a9190610903565b60405180910390f35b61016d600480360381019061016891906106f9565b61035f565b005b6000600360009054906101000a900473ffffffffffffffffffffffffffffffffffffffff16905090565b6101a16105fc565b6000808381526020019081526020016000206040518060a00160405290816000820154815260200160018201548152602001600282015481526020016003820160009054906101000a900473ffffffffffffffffffffffffffffffffffffffff1673ffffffffffffffffffffffffffffffffffffffff1673ffffffffffffffffffffffffffffffffffffffff1681526020016003820160149054906101000a900460ff16600281111561027d577f4e487b7100000000000000000000000000000000000000000000000000000000600052602160045260246000fd5b60028111156102b5577f4e487b7100000000000000000000000000000000000000000000000000000000600052602160045260246000fd5b815250509050919050565b600060016000838152602001908152602001600020549050919050565b6102e561016f565b73ffffffffffffffffffffffffffffffffffffffff163373ffffffffffffffffffffffffffffffffffffffff1614610349576040517f5fc483c500000000000000000000000000000000000000000000000000000000815260040160405180910390fd5b6103528161054b565b50565b6000600254905090565b60008233604051602001610374929190610886565b6040516020818303038152906040528051906020012090506103958161058f565b156103cc576040517fb0fc2d9700000000000000000000000000000000000000000000000000000000815260040160405180910390fd5b6000600260008154809291906103e1906109b5565b9190505590508160016000838152602001908152602001600020819055506040518060a001604052808281526020013481526020018481526020013373ffffffffffffffffffffffffffffffffffffffff16815260200160006002811115610472577f4e487b7100000000000000000000000000000000000000000000000000000000600052602160045260246000fd5b81525060008084815260200190815260200160002060008201518160000155602082015181600101556040820151816002015560608201518160030160006101000a81548173ffffffffffffffffffffffffffffffffffffffff021916908373ffffffffffffffffffffffffffffffffffffffff16021790555060808201518160030160146101000a81548160ff0219169083600281111561053d577f4e487b7100000000000000000000000000000000000000000000000000000000600052602160045260246000fd5b021790555090505050505050565b80600360006101000a81548173ffffffffffffffffffffffffffffffffffffffff021916908373ffffffffffffffffffffffffffffffffffffffff16021790555050565b60003373ffffffffffffffffffffffffffffffffffffffff1660008084815260200190815260200160002060030160009054906101000a900473ffffffffffffffffffffffffffffffffffffffff1673ffffffffffffffffffffffffffffffffffffffff16149050919050565b6040518060a00160405280600081526020016000815260200160008019168152602001600073ffffffffffffffffffffffffffffffffffffffff16815260200160006002811115610676577f4e487b7100000000000000000000000000000000000000000000000000000000600052602160045260246000fd5b81525090565b60008135905061068b81610aab565b92915050565b6000813590506106a081610ac2565b92915050565b6000813590506106b581610ad9565b92915050565b6000813590506106ca81610af0565b92915050565b6000602082840312156106e257600080fd5b60006106f08482850161067c565b91505092915050565b6000806040838503121561070c57600080fd5b600061071a85828601610691565b925050602061072b858286016106a6565b9150509250929050565b60006020828403121561074757600080fd5b6000610755848285016106a6565b91505092915050565b60006020828403121561077057600080fd5b600061077e848285016106bb565b91505092915050565b6107908161091e565b82525050565b61079f8161091e565b82525050565b6107b66107b18261091e565b6109fe565b82525050565b6107cd6107c882610930565b610a10565b82525050565b6107dc8161095c565b82525050565b6107eb8161095c565b82525050565b6107fa816109a3565b82525050565b60a0820160008201516108166000850182610868565b5060208201516108296020850182610868565b50604082015161083c60408501826107d3565b50606082015161084f6060850182610787565b50608082015161086260808501826107f1565b50505050565b61087181610999565b82525050565b61088081610999565b82525050565b600061089282856107bc565b6010820191506108a282846107a5565b6014820191508190509392505050565b60006020820190506108c76000830184610796565b92915050565b60006020820190506108e260008301846107e2565b92915050565b600060a0820190506108fd6000830184610800565b92915050565b60006020820190506109186000830184610877565b92915050565b600061092982610979565b9050919050565b60007fffffffffffffffffffffffffffffffff0000000000000000000000000000000082169050919050565b6000819050919050565b600081905061097482610a97565b919050565b600073ffffffffffffffffffffffffffffffffffffffff82169050919050565b6000819050919050565b60006109ae82610966565b9050919050565b60006109c082610999565b91507fffffffffffffffffffffffffffffffffffffffffffffffffffffffffffffffff8214156109f3576109f2610a2c565b5b600182019050919050565b6000610a0982610a1a565b9050919050565b6000819050919050565b6000610a2582610a8a565b9050919050565b7f4e487b7100000000000000000000000000000000000000000000000000000000600052601160045260246000fd5b7f4e487b7100000000000000000000000000000000000000000000000000000000600052602160045260246000fd5b60008160601b9050919050565b60038110610aa857610aa7610a5b565b5b50565b610ab48161091e565b8114610abf57600080fd5b50565b610acb81610930565b8114610ad657600080fd5b50565b610ae28161095c565b8114610aed57600080fd5b50565b610af981610999565b8114610b0457600080fd5b5056fea264697066735822122078fa63936ee63e9025af47ac07a7a204f1aaa62d1c6cbd787a5f7926474d20e064736f6c63430008040033",
  "immutableReferences": {},
  "source": "// SPDX-License-Identifier: UNLICENSED\r\npragma solidity >=0.4.22 <0.9.0;\r\n\r\n//!CourseMarketPlace\r\ncontract CourseMarketPlace {\r\n    //State of buyed course\r\n    enum State {\r\n        Purchased,\r\n        Activated,\r\n        Deactivated\r\n    }\r\n\r\n    //Course object\r\n    struct Course {\r\n        uint id;\r\n        uint price;\r\n        bytes32 proof;\r\n        address owner;\r\n        State state;\r\n    }\r\n\r\n    //mapping of courseHash to Course data\r\n    mapping(bytes32 => Course) private ownedCourses;\r\n\r\n    //mapping of courseId to courseHash\r\n    mapping(uint => bytes32) private ownedCourseHash;\r\n\r\n    //Total number of course owned to current user\r\n    uint private totalOwnedCourse;\r\n\r\n    ///Course has already a Owner!\r\n    error CourseHasOwner();\r\n\r\n    /// Only owner has an access!\r\n    error OnlyOwner();\r\n\r\n    //Adress of the owner of the contract\r\n    address payable private owner;\r\n\r\n    //Constructor works only once\r\n    constructor() {\r\n        setContractOwner(msg.sender);\r\n    }\r\n\r\n    //purchase course from current user\r\n    function purchaseCourse(bytes16 courseId, bytes32 proof) external payable {\r\n        bytes32 courseHash = keccak256(abi.encodePacked(courseId, msg.sender));\r\n        if (hasCourseOwnerShip(courseHash)) {\r\n            revert CourseHasOwner();\r\n        }\r\n\r\n        uint id = totalOwnedCourse++;\r\n        ownedCourseHash[id] = courseHash;\r\n        ownedCourses[courseHash] = Course({\r\n            id: id,\r\n            price: msg.value,\r\n            proof: proof,\r\n            owner: msg.sender,\r\n            state: State.Purchased\r\n        });\r\n    }\r\n\r\n    //get number of course owned to current user\r\n    function getCourseCount() external view returns (uint) {\r\n        return totalOwnedCourse;\r\n    }\r\n\r\n    //get course match to hash index\r\n    function getCourseHashAtIndex(uint index) external view returns (bytes32) {\r\n        return ownedCourseHash[index];\r\n    }\r\n\r\n    //get course instance using coursehash\r\n    function getCourseByHash(\r\n        bytes32 courseHash\r\n    ) external view returns (Course memory) {\r\n        return ownedCourses[courseHash];\r\n    }\r\n\r\n    // get contract owner well you now who ise deploy this contract\r\n    function getContractOwner() public view returns (address) {\r\n        return owner;\r\n    }\r\n\r\n    //check course is already i\r\n    function hasCourseOwnerShip(\r\n        bytes32 courseHash\r\n    ) private view returns (bool) {\r\n        return ownedCourses[courseHash].owner == msg.sender;\r\n    }\r\n\r\n    function setContractOwner(address newOwner) private {\r\n        owner = payable(newOwner);\r\n    }\r\n\r\n    function transferOwnerShip(address newOwner) external onlyOwner {\r\n        setContractOwner(newOwner);\r\n    }\r\n\r\n    modifier onlyOwner() {\r\n        if (msg.sender != getContractOwner()) {\r\n            revert OnlyOwner();\r\n        }\r\n        _;\r\n    }\r\n}\r\n",
  "sourcePath": "C:\\Users\\riade\\OneDrive\\Desktop\\MarketPlaceNextJs\\course-marketplace-eth\\frontend\\contracts\\CourseMarketplace.sol",
  "compiler": {
    "name": "solc",
    "version": "0.8.4+commit.c7e474f2.Emscripten.clang"
  },
  "schemaVersion": "3.4.16",
  "updatedAt": "2023-12-23T17:29:50.258Z",
  "networkType": "ethereum",
  "devdoc": {
    "kind": "dev",
    "methods": {},
    "version": 1
  },
  "userdoc": {
    "errors": {
      "CourseHasOwner()": [
        {
          "notice": "Course has already a Owner!"
        }
      ],
      "OnlyOwner()": [
        {
          "notice": "Only owner has an access!"
        }
      ]
    },
    "kind": "user",
    "methods": {},
    "version": 1
  }
}